{
  "_format": "hh-sol-artifact-1",
  "contractName": "Marketplace",
  "sourceName": "src/backend/contracts/Marketplace.sol",
  "abi": [
    {
      "inputs": [
        {
          "internalType": "uint256",
          "name": "_feePercent",
          "type": "uint256"
        }
      ],
      "stateMutability": "nonpayable",
      "type": "constructor"
    },
    {
      "anonymous": false,
      "inputs": [
        {
          "indexed": false,
          "internalType": "uint256",
          "name": "itemId",
          "type": "uint256"
        },
        {
          "indexed": true,
          "internalType": "address",
          "name": "nft",
          "type": "address"
        },
        {
          "indexed": false,
          "internalType": "uint256",
          "name": "tokenId",
          "type": "uint256"
        },
        {
          "indexed": false,
          "internalType": "uint256",
          "name": "price",
          "type": "uint256"
        },
        {
          "indexed": true,
          "internalType": "address",
          "name": "seller",
          "type": "address"
        },
        {
          "indexed": true,
          "internalType": "address",
          "name": "buyer",
          "type": "address"
        }
      ],
      "name": "Bought",
      "type": "event"
    },
    {
      "anonymous": false,
      "inputs": [
        {
          "indexed": false,
          "internalType": "uint256",
          "name": "itemId",
          "type": "uint256"
        },
        {
          "indexed": true,
          "internalType": "address",
          "name": "nft",
          "type": "address"
        },
        {
          "indexed": false,
          "internalType": "uint256",
          "name": "tokenId",
          "type": "uint256"
        },
        {
          "indexed": false,
          "internalType": "uint256",
          "name": "price",
          "type": "uint256"
        },
        {
          "indexed": true,
          "internalType": "address",
          "name": "seller",
          "type": "address"
        }
      ],
      "name": "Offered",
      "type": "event"
    },
    {
      "inputs": [],
      "name": "feeAccount",
      "outputs": [
        {
          "internalType": "address payable",
          "name": "",
          "type": "address"
        }
      ],
      "stateMutability": "view",
      "type": "function"
    },
    {
      "inputs": [],
      "name": "feePercent",
      "outputs": [
        {
          "internalType": "uint256",
          "name": "",
          "type": "uint256"
        }
      ],
      "stateMutability": "view",
      "type": "function"
    },
    {
      "inputs": [
        {
          "internalType": "uint256",
          "name": "_itemId",
          "type": "uint256"
        }
      ],
      "name": "getTotalPrice",
      "outputs": [
        {
          "internalType": "uint256",
          "name": "",
          "type": "uint256"
        }
      ],
      "stateMutability": "view",
      "type": "function"
    },
    {
      "inputs": [],
      "name": "itemCount",
      "outputs": [
        {
          "internalType": "uint256",
          "name": "",
          "type": "uint256"
        }
      ],
      "stateMutability": "view",
      "type": "function"
    },
    {
      "inputs": [
        {
          "internalType": "uint256",
          "name": "",
          "type": "uint256"
        }
      ],
      "name": "items",
      "outputs": [
        {
          "internalType": "uint256",
          "name": "itemId",
          "type": "uint256"
        },
        {
          "internalType": "contract IERC721",
          "name": "nft",
          "type": "address"
        },
        {
          "internalType": "uint256",
          "name": "tokenId",
          "type": "uint256"
        },
        {
          "internalType": "uint256",
          "name": "price",
          "type": "uint256"
        },
        {
          "internalType": "address payable",
          "name": "seller",
          "type": "address"
        },
        {
          "internalType": "bool",
          "name": "sold",
          "type": "bool"
        }
      ],
      "stateMutability": "view",
      "type": "function"
    },
    {
      "inputs": [
        {
          "internalType": "contract IERC721",
          "name": "_nft",
          "type": "address"
        },
        {
          "internalType": "uint256",
          "name": "_tokenId",
          "type": "uint256"
        },
        {
          "internalType": "uint256",
          "name": "_price",
          "type": "uint256"
        }
      ],
      "name": "makeItem",
      "outputs": [],
      "stateMutability": "nonpayable",
      "type": "function"
    },
    {
      "inputs": [
        {
          "internalType": "uint256",
          "name": "_itemId",
          "type": "uint256"
        }
      ],
      "name": "purchaseItem",
      "outputs": [],
      "stateMutability": "payable",
      "type": "function"
    }
  ],
  "bytecode": "0x60c060405234801561001057600080fd5b5060405161136838038061136883398181016040528101906100329190610094565b60016000819055503373ffffffffffffffffffffffffffffffffffffffff1660808173ffffffffffffffffffffffffffffffffffffffff1660601b815250508060a08181525050506100de565b60008151905061008e816100c7565b92915050565b6000602082840312156100a657600080fd5b60006100b48482850161007f565b91505092915050565b6000819050919050565b6100d0816100bd565b81146100db57600080fd5b50565b60805160601c60a051611254610114600039600081816101e601526102970152600081816101bc01526104bd01526112546000f3fe6080604052600436106100705760003560e01c8063bfb231d21161004e578063bfb231d2146100f6578063ca7dd37514610138578063d38ea5bf14610175578063fa00afc71461019157610070565b806365e17c9d146100755780636bfb0d01146100a05780637fd6f15c146100cb575b600080fd5b34801561008157600080fd5b5061008a6101ba565b6040516100979190610c7c565b60405180910390f35b3480156100ac57600080fd5b506100b56101de565b6040516100c29190610d9e565b60405180910390f35b3480156100d757600080fd5b506100e06101e4565b6040516100ed9190610d9e565b60405180910390f35b34801561010257600080fd5b5061011d60048036038101906101189190610b20565b610208565b60405161012f96959493929190610db9565b60405180910390f35b34801561014457600080fd5b5061015f600480360381019061015a9190610b20565b610291565b60405161016c9190610d9e565b60405180910390f35b61018f600480360381019061018a9190610b20565b6102f4565b005b34801561019d57600080fd5b506101b860048036038101906101b39190610ad1565b610710565b005b7f000000000000000000000000000000000000000000000000000000000000000081565b60015481565b7f000000000000000000000000000000000000000000000000000000000000000081565b60026020528060005260406000206000915090508060000154908060010160009054906101000a900473ffffffffffffffffffffffffffffffffffffffff16908060020154908060030154908060040160009054906101000a900473ffffffffffffffffffffffffffffffffffffffff16908060040160149054906101000a900460ff16905086565b600060647f000000000000000000000000000000000000000000000000000000000000000060646102c29190610e6d565b60026000858152602001908152602001600020600301546102e39190610ef4565b6102ed9190610ec3565b9050919050565b6002600054141561033a576040517f08c379a000000000000000000000000000000000000000000000000000000000815260040161033190610d7e565b60405180910390fd5b6002600081905550600061034d82610291565b9050600060026000848152602001908152602001600020905060008311801561037857506001548311155b6103b7576040517f08c379a00000000000000000000000000000000000000000000000000000000081526004016103ae90610d5e565b60405180910390fd5b813410156103fa576040517f08c379a00000000000000000000000000000000000000000000000000000000081526004016103f190610d3e565b60405180910390fd5b8060040160149054906101000a900460ff161561044c576040517f08c379a000000000000000000000000000000000000000000000000000000000815260040161044390610cfe565b60405180910390fd5b8060040160009054906101000a900473ffffffffffffffffffffffffffffffffffffffff1673ffffffffffffffffffffffffffffffffffffffff166108fc82600301549081150290604051600060405180830381858888f193505050501580156104ba573d6000803e3d6000fd5b507f000000000000000000000000000000000000000000000000000000000000000073ffffffffffffffffffffffffffffffffffffffff166108fc8260030154846105059190610f4e565b9081150290604051600060405180830381858888f19350505050158015610530573d6000803e3d6000fd5b5061057f6040518060400160405280601181526020017f46656520746f207472616e736665723a2000000000000000000000000000000081525082600301548461057a9190610f4e565b6109e2565b60018160040160146101000a81548160ff0219169083151502179055508060010160009054906101000a900473ffffffffffffffffffffffffffffffffffffffff1673ffffffffffffffffffffffffffffffffffffffff166323b872dd303384600201546040518463ffffffff1660e01b815260040161060193929190610c97565b600060405180830381600087803b15801561061b57600080fd5b505af115801561062f573d6000803e3d6000fd5b505050503373ffffffffffffffffffffffffffffffffffffffff168160040160009054906101000a900473ffffffffffffffffffffffffffffffffffffffff1673ffffffffffffffffffffffffffffffffffffffff168260010160009054906101000a900473ffffffffffffffffffffffffffffffffffffffff1673ffffffffffffffffffffffffffffffffffffffff167f8b4c9c8a607d67b321582dd8461041b1dc2ceeca70c8b7f37f8e02095cf2e76d86856002015486600301546040516106fb93929190610e1a565b60405180910390a45050600160008190555050565b60026000541415610756576040517f08c379a000000000000000000000000000000000000000000000000000000000815260040161074d90610d7e565b60405180910390fd5b60026000819055506001600081548092919061077190611045565b9190505550600081116107b9576040517f08c379a00000000000000000000000000000000000000000000000000000000081526004016107b090610d1e565b60405180910390fd5b8273ffffffffffffffffffffffffffffffffffffffff166323b872dd3330856040518463ffffffff1660e01b81526004016107f693929190610c97565b600060405180830381600087803b15801561081057600080fd5b505af1158015610824573d6000803e3d6000fd5b505050506040518060c0016040528060015481526020018473ffffffffffffffffffffffffffffffffffffffff1681526020018381526020018281526020013373ffffffffffffffffffffffffffffffffffffffff168152602001600015158152506002600060015481526020019081526020016000206000820151816000015560208201518160010160006101000a81548173ffffffffffffffffffffffffffffffffffffffff021916908373ffffffffffffffffffffffffffffffffffffffff160217905550604082015181600201556060820151816003015560808201518160040160006101000a81548173ffffffffffffffffffffffffffffffffffffffff021916908373ffffffffffffffffffffffffffffffffffffffff16021790555060a08201518160040160146101000a81548160ff0219169083151502179055509050503373ffffffffffffffffffffffffffffffffffffffff168373ffffffffffffffffffffffffffffffffffffffff167f655a0cf9c8db81512be9a76dc1c5ae5380b8816ce6ad659cd61b715e2999d59a60015485856040516109cd93929190610e1a565b60405180910390a36001600081905550505050565b610a7a82826040516024016109f8929190610cce565b6040516020818303038152906040527fb60e72cc000000000000000000000000000000000000000000000000000000007bffffffffffffffffffffffffffffffffffffffffffffffffffffffff19166020820180517bffffffffffffffffffffffffffffffffffffffffffffffffffffffff8381831617835250505050610a7e565b5050565b60008151905060006a636f6e736f6c652e6c6f679050602083016000808483855afa5050505050565b600081359050610ab6816111f0565b92915050565b600081359050610acb81611207565b92915050565b600080600060608486031215610ae657600080fd5b6000610af486828701610aa7565b9350506020610b0586828701610abc565b9250506040610b1686828701610abc565b9150509250925092565b600060208284031215610b3257600080fd5b6000610b4084828501610abc565b91505092915050565b610b5281610f94565b82525050565b610b6181610f82565b82525050565b610b7081610fa6565b82525050565b610b7f81610fee565b82525050565b6000610b9082610e51565b610b9a8185610e5c565b9350610baa818560208601611012565b610bb3816110ec565b840191505092915050565b6000610bcb601183610e5c565b9150610bd6826110fd565b602082019050919050565b6000610bee601f83610e5c565b9150610bf982611126565b602082019050919050565b6000610c11603383610e5c565b9150610c1c8261114f565b604082019050919050565b6000610c34601283610e5c565b9150610c3f8261119e565b602082019050919050565b6000610c57601f83610e5c565b9150610c62826111c7565b602082019050919050565b610c7681610fe4565b82525050565b6000602082019050610c916000830184610b49565b92915050565b6000606082019050610cac6000830186610b58565b610cb96020830185610b58565b610cc66040830184610c6d565b949350505050565b60006040820190508181036000830152610ce88185610b85565b9050610cf76020830184610c6d565b9392505050565b60006020820190508181036000830152610d1781610bbe565b9050919050565b60006020820190508181036000830152610d3781610be1565b9050919050565b60006020820190508181036000830152610d5781610c04565b9050919050565b60006020820190508181036000830152610d7781610c27565b9050919050565b60006020820190508181036000830152610d9781610c4a565b9050919050565b6000602082019050610db36000830184610c6d565b92915050565b600060c082019050610dce6000830189610c6d565b610ddb6020830188610b76565b610de86040830187610c6d565b610df56060830186610c6d565b610e026080830185610b49565b610e0f60a0830184610b67565b979650505050505050565b6000606082019050610e2f6000830186610c6d565b610e3c6020830185610c6d565b610e496040830184610c6d565b949350505050565b600081519050919050565b600082825260208201905092915050565b6000610e7882610fe4565b9150610e8383610fe4565b9250827fffffffffffffffffffffffffffffffffffffffffffffffffffffffffffffffff03821115610eb857610eb761108e565b5b828201905092915050565b6000610ece82610fe4565b9150610ed983610fe4565b925082610ee957610ee86110bd565b5b828204905092915050565b6000610eff82610fe4565b9150610f0a83610fe4565b9250817fffffffffffffffffffffffffffffffffffffffffffffffffffffffffffffffff0483118215151615610f4357610f4261108e565b5b828202905092915050565b6000610f5982610fe4565b9150610f6483610fe4565b925082821015610f7757610f7661108e565b5b828203905092915050565b6000610f8d82610fc4565b9050919050565b6000610f9f82610fc4565b9050919050565b60008115159050919050565b6000610fbd82610f82565b9050919050565b600073ffffffffffffffffffffffffffffffffffffffff82169050919050565b6000819050919050565b6000610ff982611000565b9050919050565b600061100b82610fc4565b9050919050565b60005b83811015611030578082015181840152602081019050611015565b8381111561103f576000848401525b50505050565b600061105082610fe4565b91507fffffffffffffffffffffffffffffffffffffffffffffffffffffffffffffffff8214156110835761108261108e565b5b600182019050919050565b7f4e487b7100000000000000000000000000000000000000000000000000000000600052601160045260246000fd5b7f4e487b7100000000000000000000000000000000000000000000000000000000600052601260045260246000fd5b6000601f19601f8301169050919050565b7f6974656d20616c726561647920736f6c64000000000000000000000000000000600082015250565b7f5072696365206d7573742062652067726561746572207468616e207a65726f00600082015250565b7f6e6f7420656e6f75676820657468657220746f20636f766572206974656d207060008201527f7269636520616e64206d61726b65742066656500000000000000000000000000602082015250565b7f6974656d20646f65736e27742065786973740000000000000000000000000000600082015250565b7f5265656e7472616e637947756172643a207265656e7472616e742063616c6c00600082015250565b6111f981610fb2565b811461120457600080fd5b50565b61121081610fe4565b811461121b57600080fd5b5056fea2646970667358221220e249bff1ed9d5fb28d71fa892f13ba42f9db3456c2fa842dfb9b631cfc61a35864736f6c63430008040033",
  "linkReferences": {},
  "deployedLinkReferences": {}
}